:040000006F1000225B
:1000040000000000000000006F0080086F00E02284
:1000140000000000000000000000000000000000DC
:1000240000000000000000000000000000000000CC
:100034006F004006000000006F00E00500000000B3
:100044006F0080056F0060056F0040056F0020059C
:100054006F0000056F00E0046F00C00400000000A2
:100064006F0060046F0040046F0020046F00000400
:100074006F00E0236F00C003000000006F00600306
:100084006F0040036F0020036F0000036F00E00265
:1000940001A001A001A001A001A001A001A001A054
:1000A40001A001A001A001A001A001A001A001A044
:1000B40001A001A001A001A001A001A0B717004068
:1000C400130770052380E704130780FA2380E704ED
:1000D4002396A70223800704371700408347270588
:1000E400898BEDDF835707053717004083472705C2
:1000F400898BEDFF3717004083472705898BEDDF98
:10010400035507058280B7170040930670052380C6
:10011400D704130780FA2380E70403C6B7041376D1
:10012400F60DA385C70423800704137605022DC6A4
:1001340003C6A700118A0DE22380D7042380E704B5
:1001440003C7A700136747002385E7009307004B05
:1001540001000100FD17EDFFB7170040930670057D
:100164002380D704130780FA2380E7047D8923942E
:10017400A70001000100010001002380070423807F
:10018400D7042380E7049306100537270040A30310
:10019400D780238007048280137605046DDE03C6AE
:1001A400A700418A0DE22380D7042380E70403C714
:1001B400A700136707012385E7009307007D01006B
:1001C4000100FD17EDFFB71700409306700523806B
:1001D400D704130780FA7D892380E7041365050497
:1001E4002394A700010001000100010023800704FB
:1001F4002380D7042380E704930630053727004083
:1002040079B74111814601468145114506C6D92A6F
:10021400B7170040130770052380E704130780FA1B
:100224002380E70403C76704136717002383E704E5
:1002340023800704B2404101828081460146814502
:1002440011454D22B7170040930670052380D7044B
:10025400130780FA2380E7047D562396C702238080
:10026400D7042380E70403C76704136717002383B5
:10027400E7042380070401A0BD473305F50201000C
:100284007D1575FD8280411122C426C206C6AA844A
:10029400014463179400B240224492444101828095
:1002A40005041305803E4204C13F4180DDB7B71702
:1002B4000040130700032388E702854723AAF18E31
:1002C40073002030411122C4371400408327C40A2C
:1002D40006C61305001093E707102326F40A8D457C
:1002E40097E0FFDFE78080EA8327840A93E707101B
:1002F4002324F40A97370000938747FB23A0F18A4D
:1003040097370000938787FE23A2F18A97E0FFDFE7
:10031400E780E06A17B501E01305C50397A001E083
:10032400E7800099A921FDBF230304801547230317
:10033400E48001002302A480828083076480E3CEEA
:1003440007FE23030480828083076480E3CE07FED4
:1003540003454480828083076480E3CE07FE230242
:10036400A4808280411126C44AC24EC006C61377B7
:10037400F50BAD47AA892E8995446306F700194504
:100384006537653F8D444E854537FD59FD146398A7
:100394003401B240A244124982494101828013557A
:1003A40009011375F50F453F2209CDB7011126CC7C
:1003B40006CEB704080051371545BD377137693784
:1003C4002AC6A53F32459377150089EB13651500BE
:1003D4001375F50FF240E24405618280FD14E9FCD7
:1003E4000145CDBF397126DC4ADA4ED852D656D4EF
:1003F4005AD25ED006DE62CE66CCB7E700E07D5707
:1004040083AA070022C603AA470023A0E71823A251
:10041400E718B7170040130770052380E704130794
:1004240080FA2380E70483C74704930B75FFB684DF
:10043400E20793FBFB0F8546AA892E8B328937246A
:100444000040E187015763FA76016308D5008946C5
:10045400130700026313D5000157D98F93F7F70FE1
:10046400B71C00402382FC0411472303E4801305D6
:10047400F00F5D3D094CD13563697C11B707070066
:100484003E9B378707007955637EEB02B3079B00D9
:10049400636AF702A9476399F90689E48144713DC7
:1004A40026850DA0DA850945753D05090345F9FF43
:1004B400FD14050B4D3581C49377FB0FFDF7FD3516
:1004C40069FD7D55B7170040130770052380E704C5
:1004D400130780FA2380E70403C74704418B238270
:1004E400E704F250B7E700E023A0571123A2471115
:1004F400E25432445259C259325AA25A125B825BB4
:10050400724CE24C21618280A5476395F9068569A6
:100514001309F00FB3069900B3742B01B694134971
:10052400F9FFB3749900856B33796901416B938743
:10053400F9FFB3F7270199E363FC340193D9490028
:10054400C147E3E637FF99BF0569C1697D19D9B78A
:100554001305800D63886901130500026384790122
:1005640013051008CA85FD3B913521DD4E99B384EE
:100574003441D9B7DA852D45F533CA94E30099F2AD
:100584000509D933A30FA9FED5BF9387F9FF93F7C4
:10059400F70F636CFC0803C75C04B7070800137704
:1005A400070219E3B78707007955E37DFBF03307AA
:1005B4009B00E3E9E7F089476390F9048980D54912
:1005C400E38E04ECDA850945713B11090327C9FF61
:1005D40091472320E48003076480E34E07FE23034E
:1005E4003481FD17EDFBFD14110B81C49377FB0FD0
:1005F400E9FF6D3B71F5F1B58547E387F9F4DA85D9
:100604002D458D339389F4FFE38A04E8353B93F752
:10061400390091EB832604800327090093074900DE
:10062400E39FE6E63E89CE84F1BFB5476396F900C1
:100634001305900BD5399DB5B1471305B00AE38B6B
:10064400F9FE9947639EF902DA852D45213B8144E1
:100654008D4BA149D53963967401832704802320E7
:10066400F9008504E39834FF8327048013172B01D2
:10067400635507002312F90015B52322F90039BD8B
:100684009D476399F90281451305B004E139BD44DE
:100694002320090023220900FD597D3193F77400BA
:1006A400CA9703C70700FD14398D2380A700E3967A
:1006B40034FFEDB3A1476392F904CD398144630D4E
:1006C4000B008D479304C0036308FB0093040005EB
:1006D40063048B01930440041375C507E30095DCA0
:1006E400194599319939054581312685AD31094539
:1006F4009D316D39E31405DAE9B391476399F90043
:1007040013056006153115391305900925B7E387DC
:1007140009D8F15469B309CDB71700401307700520
:100724002380E704130780FA2380E7042396A702B3
:10073400828019C1814799E982803387F500834615
:1007440007003307F50085072300D700E397C7FEAA
:10075400E5B719C1FD5781E98280910503A7C5FF5B
:100764001105232EE5FE7D16E319F6FEF5B7797122
:1007740022D417340000130464C11C4006D626D2C8
:100784004AD04ECE91C782979737000023A007C066
:100794005C4089CB03D50190BD3F5C40829703D573
:1007A4002190953F1C40639907189737000083C731
:1007B400B7CF858B95C797370000A38707CE173728
:1007C4000000034797CE914763FCE7004D2B973712
:1007D400000083C797CDF9178A07A2979C43829795
:1007E4009737000083C707D1918B89C7972001E011
:1007F400E78020C31C4491C382979387C18F984399
:1008040017360000034656B63E8997340000938499
:10081400A4B59737000083C727B593961700BA96F7
:1008240083D60600638006109737000083C7C7B3DA
:1008340063F2C70886073E97835507002310070015
:1008440003D501902EC623940190F13593874191ED
:100854009C4317350000034525B113172500BA97AB
:100864009C43B2458297AA8903D521906D35973769
:10087400000083C767AF139717008327090003D5C8
:1008840081901345F5FFBA9703D7070033753501F7
:10089400598D2390A70083C70400850793F7F70FAA
:1008A400173700002302F7AC173700000347D7AB14
:1008B40063E6E70097370000238807AA1C40ADEFE2
:1008C4009387C19098433E8425CB9737000083C714
:1008D40017BE91CB9737000083C737BD89E79710C0
:1008E40001E0E780C0641C4082972A8431C59C489B
:1008F400AA97173700002321F7A8938701919C43F7
:1009040085CF03D50190013D2285970000E0E78063
:10091400C0522254B25092540259F24903D5219044
:100924004561D5BB850793F7F70F97360000238DF4
:10093400F6A2E3E0C7EECDBDB25022549254025960
:10094400F249456182809167B7C60040938737308A
:1009540023A6F6200F100000973700009387C7A046
:10096400884F938741A09C43316713073730F05376
:10097400B7071000FD17918F99833A0523A6E62047
:100984005D8D82804111B7170040985F3AC6945F2D
:100994003247E39CE6FE324541018280411106C69E
:1009A400D5379736000083C6A699858AB1C69307C2
:1009B40030333307F502B337F5023983CA07D98FC9
:1009C400173700001307479A584B01456303F70292
:1009D4003385E740636BF70037653D0889C6378583
:1009E4006F0813050590198D3E95173700002327CE
:1009F400F798B24041018280E5473307F502B337E7
:100A0400F5022583DE0765BF0327C50F8346B500BE
:100A140097370000938707A99C4F58439386160283
:100A240095829043FD1693F6F60F10C3D04350C33E
:100A3400904710C7D04750C7904B10CBD04B50CBEA
:100A4400904F10CFD04F50CF91C613070702938712
:100A54000702C1BF82808347E50193F7E70FF1E7FF
:100A64002A870345F50171E10346070183468700A0
:100A740009CA8345A7029737000083C7778C63E7C9
:100A8400F50093F70601C5C7814709C6C18A835794
:100A9400071581C603574715BA97D1CB17370000FE
:100AA4001307C7AB3847411122C406C67D548326B9
:100AB400070863F386003684184375FB1737000074
:100AC4000347078893168701E18663D90602938753
:100AD400C71395831737000003472787BA9763D056
:100AE40006041D8C938781919C4382973335A4001F
:100AF400B24022441345150041018280058B93873F
:100B0400C71209CB8A079387F7031305D007B3D716
:100B1400A702C9B78607FD071305D003CDBFE3724B
:100B2400F4FC3705C0A82A946DBF014582808280F9
:100B3400411122C41384419F18404AC006C61C5F59
:100B440026C21389019F9983858BC1C31C5F973487
:100B540000009384249593F7F7F91CDF973700007E
:100B640083C7479493F707048DC3938781919C436C
:100B740082979737000023AFA79283C7040093F7A7
:100B8400F70B17370000230FF7908547173700003E
:100B9400A30CF79083C7440093F7070481EF93876E
:100BA40041A09C43D844B8D3930700FC17370000F6
:100BB400230CF78E8387640063D907008327090019
:100BC4009C43173700002302F78E18401C5F85836F
:100BD400858BC9CBF5571CDF010001000100010022
:100BE40001000100010001000100010001000100F9
:100BF40001000100010001000100010001000100E9
:100C040001000100010001000100010001000100D8
:100C140001000100010001000100010001000100C8
:100C240001000100010001000100010001000100B8
:100C340001000100010001000100010001000100A8
:100C44000100010001000100010001000100010098
:100C54000100010001000100938741A09C43130798
:100C64005004B8CB18401C5F9183858B89CFBD5746
:100C74001CDF938741A09C4323A8070485471737AB
:100C840000002303F78283270900D8430583058BDB
:100C940019C7D843759BD8C3D843799BD8C3B240EE
:100CA40022449244024941018280397106DE16DCF5
:100CB4001ADA1ED82AD62ED432D236D03ACE3ECC28
:100CC40042CA46C872C676C47AC27EC09535F2500E
:100CD400E2525253C2533255A255125682567247AB
:100CE400E2475248C248324EA24E124F824F21610F
:100CF40073002030938741A0944317270000130703
:100D0400677ABC5289CF83472700858B89EB834759
:100D14003700858BFDD797270000238707788280CB
:100D2400938701A09C4399CB944BD04B9842518F0D
:100D340098C294439C479842D98F9CC2938741A000
:100D44009C4337C700401306C003A8CB9306200377
:100D5400972500009385057583278720C18393F722
:100D6400F7036369F60083278720C18393F7F703AA
:100D740063E6F60083C74500858BF9DF828093879D
:100D840041A09443172700001307C771BC5289CBB5
:100D940083470700858B91CB972700002386077034
:100DA40097270000A3820770828083471700858BF2
:100DB400F1DFDDB7938701A09C4399CB944BD04BD3
:100DC4009842518F98C294439C479842D98F9CC2B1
:100DD400938741A0944337C70040C145A8CA6546DC
:100DE40083278720C18393F7F70363FBF5008327E9
:100DF4008720C18393F7F7036364F600BC52EDF3D5
:100E040082801387419F1843AA87185F1583058B37
:100E140025EF0345150015051377C51F19C6B386BD
:100E2400E70083C626002300D60095C59726000058
:100E340083C6A66793F606040945A1CAB386E700EC
:100E440083C63600054693F5F6066390C504E206AC
:100E5400E18663CC06023385E70083471500034728
:100E64000500A20793F70770D98F139707014183F1
:100E74009376074099C613670780239EE19E014538
:100E84008280239EF19EE5BF05458280938641A022
:100E94008C423685972600009386C6609845931742
:100EA4000701C183137817203E866304080413776F
:100EB400072079C303C7260013671700172800000B
:100EC4002303E85E13070019B8D1130700F8972528
:100ED4000000238BE55C1387419F0C433708001007
:100EE400D855719B13672700D8D5984133670701FC
:100EF40098C11377261005C31376061059CE03C77D
:100F040006001367170017260000230DE65817275D
:100F14000000231D075883C6460093C7F7FFC20786
:100F2400E206E186C183184163D106029396170154
:100F340063DE060630538D4663E9C60085461726F0
:100F440000002303D6563453FDFE972600009386F3
:100F5400E63D8386460163DD060093960701C1865C
:100F640063DC06047053894663E4C6007453FDFED3
:100F74001447F58F1CC7828003C716001367170038
:100F840097250000A380E55217270000230E075081
:100F940017270000231C0750A9BF03C73600136797
:100FA400170017260000A300E65095B785461726BC
:100FB4000000230BD64E51BF5447139606016351CC
:100FC4000602B7061000FD1674D397260000938618
:100FD400A639944E8506172600002323D63A49BF26
:100FE400A166D58F71B7397106DE16DC1ADA1ED800
:100FF4002AD62ED432D236D03ACE3ECC42CA46C8B5
:1010040072C676C47AC27EC05135F250E25252534F
:10101400C2533255A255125682567247E24752487D
:10102400C248324EA24E124F824F216173002030CB
:10103400172700001307C7488346B7019727000006
:1010440083C7574BB69793F7F70FFD4663EAF60449
:101054004C4B97260000A385F6469727000083C7CC
:10106400374605473317F70097260000A384F64850
:101074006D8F1DEF9726000083C61648B3F6D7027E
:1010840013050002814733D6F500058A13F8F70FDC
:1010940009CE6399E60097270000A3830743828063
:1010A40081177DB705071377F70F8507E39DA7FC25
:1010B4008280938701A19843B75702009387279FA3
:1010C40083260709139656006358060083260709EA
:1010D4001396660063440600FD17FDF3828051C930
:1010E400AA870145C9C98D07C207C183F19BC207FD
:1010F400C18313074003636BF702138701AA0843F4
:10110400138781A914436396A602172700001307C7
:10111400E721185B014525C34111C20706C60545F1
:10112400DD8D0297B2400145410182801387C1A938
:10113400F9B70357650005EF035745006369F702E4
:10114400B306F74021466370D602104193868700A8
:101154001D8FAA96611790C22392E600239306007E
:1011640014C12312F5002313B50021058280084120
:1011740059BF01458280828001CD938701AA03A8CB
:101184000700938781A98C430147C28763E3B700B3
:1011940082809443636FF50663EDA6061386870089
:1011A400E368C5FE03D56700216605066317C5001D
:1011B40003C6C19A05062386C19A23930700638454
:1011C40007031386C1A91042630FF6000356670094
:1011D40019EA83D7470014C383564700B697A1077B
:1011E4002312F700BA879843E304B7FA9386C1A998
:1011F4009442E30FD7F883566700D9FA83D64700A1
:10120400035647001843A106B2962392D70098C309
:0812140082803E87B6879DBF72
:10122000974100209381014C17710020130181DD4B
:1012300013054000972500209385C55C17360020D4
:101240001306C67D63FAC5008322050023A055005E
:1012500011059105E3EAC5FE17E50100130545FAFE
:10126000973500209385857B1386818963FAC500B5
:101270008322050023A0550011059105E3EAC5FE70
:101280001385818997650020938545B86377B500FC
:10129000232005001105E36DB5FE9302800873A0BD
:1012A0000230972200209382E25593E2120073905D
:1012B000523097320000938202E873901234730028
:1012C00020303D432A876373C3029377F700BDEF55
:1012D000ADE5937606FF3D8ABA960CC34CC30CC7A6
:1012E0004CC74107E36BD7FE11E28280B306C340CF
:1012F0008A069702000096966780A6002307B7002B
:10130000A306B7002306B700A305B7002305B7005F
:10131000A304B7002304B700A303B7002303B70057
:10132000A302B7002302B700A301B7002301B7004F
:10133000A300B7002300B700828093F5F50F9396C2
:101340008500D58D93960501D58D61B793962700BD
:101350009702000096968682E78086FA9680C117EB
:101360001D8F3E96E374C3F8A5B7B717004003C7B7
:1013700077051377E70FA38BE704130700F8A38D16
:10138000E7043D47238CE70413075003A38CE704CD
:101390008280B717004003D587005D715ED6420595
:1013A000418186C6A2C4A6C2CAC04EDE52DC56DA4D
:1013B0005AD862D466D26AD06ECE9377050C1307E2
:1013C0000008814B6388E71813070004639CE71447
:1013D000B7240D8F7D8993840480B3D4A4029167D0
:1013E000938707E8BE94A167938707D0B3D4F4022C
:1013F000EFB0B10B97D701009387472E9043D443AA
:10140000EFB0613FEFB0F14C2A8B939C040103D9FC
:10141000818993DC0C0163150900056913090980B2
:10142000B7170040130770052380E704130780FAFD
:101430002380E704371A00400547939D0401096C97
:1014400085662389E704D14A814E8145130D0A043C
:1014500013087005130680FA894893DD0D01130CFB
:101460000C712943FD1623000D012300CD00231626
:101470002A0323000D0083472A05898BEDDF83575C
:101480000A0583472A05898BEDFF83472A05898B47
:10149000EDDF83570A05239C2189C207C183338569
:1014A00097419319050193D909416384091633873C
:1014B000B902635E070C850EC20E93DE0E0163E86F
:1014C000D80D63D9050A3305B04093150501C185D0
:1014D000C204C18063D7350B0965130505713385D7
:1014E000A502B7170040130770052380E704130710
:1014F00080FA2380E704239677032380070433458B
:10150000950242054181B640264496440649F25967
:10151000625AD25A425BB25B225C925C025DF24D2F
:1015200061618280B1E3B77489097D899384048005
:10153000B3C4A4029167938707E8BE94A167938719
:1015400007D0B3C4F402EFB0417697D70100938778
:1015500067196DB597D701009387C717856403ABEB
:1015600007009384843855B5130B0000954471BD72
:101570003A89D5BDB387FC409399070193D90941B6
:1015800081BF0965130505713385A9028DBF3385B8
:10159000B74163E4FC003385FD40330585033344E4
:1015A000B5036345830013150401A9BF4E8536C6F4
:1015B00042C432C2EFB09125DA85EFB00176EFB0C8
:1015C000D11E931E050193DE0E41B307D941C20718
:1015D000C183056E3E871246224889482943B24698
:1015E00063E3C701368742074183631A2701130764
:1015F0001900634430011307F9FF42074183FD1AC4
:1016000093FAFA0FCA8BCE85E3940AF6239CE188FD
:1016100059BF0145CDBDB717004003D587005D71A7
:1016200086C642054181A2C4A6C2CAC04EDE52DCB3
:1016300056DA5AD85ED662D466D26AD06ECE02C668
:101640009377050C13070008638BE7141307000456
:10165000639FE710B7240D8F7D8993840480B3D4F2
:10166000A4029167938707E8BE94A167938707D088
:10167000B3D4F402EFB0616397D7010093870706F4
:101680009043D443EFB02117EFB0B1242A89939A45
:10169000040103DBA18993DA0A0163150B00056BD2
:1016A000130B0B80B7170040130770052380E70466
:1016B000130780FA2380E704939B04010547896997
:1016C000056A2389E704D14D014D814C93DB0B0161
:1016D000938909717D1A5A8597200020E780401E62
:1016E000330C5541420C135C0C41239D618963010D
:1016F0000C16B3079C0363D1070E050D420D135D55
:101700000D01894763EAA70D63DB0C0A330590419D
:10171000931C050193DC0C41C204C18063D88C0B7F
:101720000965130505713385AC02B717004013072F
:1017300070052380E704130780FA2380E70432470B
:101740002396E70223800704334595024205418131
:10175000B640264496440649F259625AD25A425B30
:10176000B25B225C925C025DF24D61618280B1E30A
:10177000B77489097D8993840480B3C4A4029167F6
:10178000938707E8BE94A167938707D0B3C4F40298
:10179000EFB0A15197D701009387C7F4D5B597D77C
:1017A0000100938727F3856403A907009384843895
:1017B000F9BD130900009544D9BD3E8B29BF33857F
:1017C000AA40131C0501135C0C41B9B70965130548
:1017D00005713305AC028DBF63FEAA003305754168
:1017E00033053503A9473344750363C887001315D0
:1017F0000401B1BF3385AB40E5B76285EFB011019D
:10180000CA85EFB08151EFB0417A131D0501135D18
:101810000D413307AB41420741838565BA87636356
:10182000B700D287C207C183639A670193071B0081
:10183000634480019307FBFFC207C183FD1D93FD35
:10184000FD0F5AC6E28CE39A0DF6239DF18845B749
:101850000145FDBD41112A83014E930E407E130FB9
:101860000019930F400663EB6E0A930800191303E7
:101870004006B3781503854E0D4FA14F33736502B3
:101880000D891335150063E5BE0C1308F6FF794684
:1018900072984208135808013307C70213D617007D
:1018A000BE0732976146B3F6C60213068070B38650
:1018B000C6023697A166F58F42075D8FB7170040C5
:1018C00083C6F70293F60608A307D1000346F1008A
:1018D00083C6F70293F60608E394C6FE8346F1003A
:1018E00093F6F60FF1DE930670052380D704930676
:1018F00080FA2380D70423AA070383C6170393E63D
:101900000608A388D702D8DB03C7170313670704A9
:10191000A388E70223800704410182807D13336896
:10192000E3039308E016630E08003368F30393089B
:10193000D016630808009378330093B81800938892
:10194000D81633081E01131E0801135E0E0121BFB5
:101950006393E503054863860800014863030300B9
:101960002A8871087298FD15131E0801C205135EBE
:101970000E01C18109BF13F8150063F4BF00790897
:10198000D5B713381800E5BF914763EEB70217D7F4
:1019900001001307A7D58A05BA959C41BA9782879B
:1019A000B717004003A7470B1345F5FF698F23AA1C
:1019B000E70A03A7070B698F23A8E70A03A7070A0B
:1019C000798D23A0A70A8280B717004083A6470B12
:1019D0001347F5FFF98E23AAD70A83A6070B558D67
:1019E00023A8A70A83A6070A758F23A0E70A828087
:1019F000B717004003A7470B498F23AAE70A03A79D
:101A0000070B1345F5FF45BFB717004083A6470BEB
:101A10001347F5FF758F23AAE70A03A7070A598D15
:101A20004DB7B717004003A7470B498FEDB7B7175E
:101A3000004003C7470203C7570211ED13077005A3
:101A40002380E704130780FA2380E7042382070238
:101A5000238007048280411106C622C426C24AC0E0
:101A600093F7050893F63500054789C7898185896D
:101A700013E72500371400401309700523002405DF
:101A8000930480FA230094042302E402A302D40204
:101A900023000404054597200020E78020FE230052
:101AA0002405230094048347440293E7C7002302DC
:101AB000F40223000404B24022449244024941014A
:101AC0008280B717004003D5870042054181937794
:101AD000050491EB9377F5013755E801130505806F
:101AE0003345F50282809377050C13070004639752
:101AF000E7009377F50137459C1CCDB721651305A9
:101B000005D08280B7F700E0C8439C4782808147B8
:101B100037370040A14663C4C70032858280034541
:101B2000B740E38EA6FE3385F50003450500850723
:101B30002304A740CDB7411122C406C62A845137D9
:101B40002947B307E502B2408D83B3D78702224409
:101B50009507B3D7E70237370040C207C183231682
:101B6000F74041018280716541111305052006C6C9
:101B7000D937B7370040130770F82381E7400D4786
:101B8000A381E74013070004A380E74005472387AC
:101B9000E740B24041018280B787004003C7070099
:101BA0001377F70B2380E70003C767021377F70764
:101BB0002383E7028280239801AE8280411106C60A
:101BC000378700408347570003C501AF858B9DCF02
:101BD00011C5834717000145858B95E7E93FB78716
:101BE000004083C7570017D50100130565B18583F1
:101BF00093C71700858B2389F1AE85472388F1AE03
:101C0000EFB0D10A5545B240410182806DDD6537A4
:101C100017D50100130585AFEFB051095945E5B758
:101C200037870040834737001375F50793F7070898
:101C3000C98FA301F700828011C1B9BF3787004067
:101C40008347070093E707042300F70082804111D0
:101C5000A147014506C622C4A38EF18837840040FF
:101C6000C1378347140093F7E70FA300F4002D3723
:101C7000834714003D4593F7970F93E72700A30090
:101C8000F40097200020E78040E08347140013050C
:101C9000A00F93F7D70FA300F40097200020E78050
:101CA000E0DD85472303F400B240224441018280F5
:101CB00083C701AF81E785472388F1AEB78700402E
:101CC00003C757005945058B05CF03C71700058B80
:101CD00019EF03C75700098B933617002389D1AE3C
:101CE00019C703C7170013674700A380E7003787AA
:101CF000004083471700014593E71700A300F70052
:101D00008280411106C622C431C1B1477D15330519
:101D1000F502138401AC2A940345140011370345DE
:101D20002400193F834724009DEB378700408347F9
:101D300067021305400693E707082303F7022244CE
:101D4000B240410117230020670043D303C511AF00
:101D5000C13D2244B24003C521AF4101F1BDB240B3
:101D6000224441018280397122DC26DA4AD84ED6DB
:101D700052D456D25AD05ECE62CC66CA6AC86EC6FB
:101D800006DEB78700402387B702B78D0040AA89D7
:101D9000328D2385B70213594500014493846D00A9
:101DA000094B054AD54B854A7D5CB94C23843D03DC
:101DB000238064019307003203C70400098B09E7FD
:101DC000FD17C207C183EDFB23840D0283C7040006
:101DD000898BE5C383C70400858B9DC323804401A1
:101DE000F13B63147501238E418983C701AFD5C7C9
:101DF0006387570B1305800C97200020E78000C8ED
:101E000083C70400898BD9C783C77D0093F7070474
:101E1000C9EB83C77D0093F7F70F13F5F700630451
:101E2000950929476319E50263020D08FD5763030D
:101E3000FD007D1D7D141374F40F3D459720002097
:101E4000E780C0C305041374F40F8947E3F087F6F5
:101E50001305000221A825476309E902B547630479
:101E6000F9006318590571D913650502F2506254DF
:101E7000D2544259B259225A925A025BF24B624CE6
:101E8000D24C424DB24D216182809D8B0D47E39C27
:101E9000E7FC65B7238084014DB75945C1BF55455F
:101EA000F1B70145E1B71305E002C9B71305A00278
:101EB00075BF1305E00F5DBF011126CA4AC8AE8485
:101EC0002A891305800C06CE22CC4EC652C456C2B7
:101ED0005AC097200020E78060BA99C02380040090
:101EE00037840040A14789692306F40213860971EB
:101EF00081451305000D853D63150514930700FD0D
:101F00002307F4022305F40285472306F402938A8B
:101F1000418A83A70A0003C4770003C7670022042D
:101F2000598C61CC630B090C83870700378A00400A
:101F30009389097163CA07041305800C9720002058
:101F4000E780C0B383C7D1896374F4009377F40F3B
:101F50002306FA0281470347CA026399E7108345C3
:101F6000EA024E864145013569ED8347CA021D8C60
:101F70004204418081C88347CA0203C70400BA975C
:101F80002380F40055F895A8938A018A1305800CE4
:101F900097200020E78080AE8345AA024E86130575
:101FA0000009D13359ED03478A009377F40F637624
:101FB000870083478A0093F7F70F1D8C4204418006
:101FC00091C403C704003E972380E4000147937641
:101FD000F70F6392D7083E9983478A0093F7F70F6C
:101FE00089CB03478A0083C7D189FD17F98F91E315
:101FF00051FCB7870040238607021305800C972009
:102000000020E780A0A7B787004083C7C702130559
:10201000000993F7F70F91E341450966130606712E
:102020009305000C893311ED378700408347C702C1
:1020300093F7F70F99C78347870093F7F70F91C37B
:102040005D45F2406244D2444249B249224A924A32
:10205000024B0561828083A60A00BA9603C6060079
:10206000B306E90005072380C60095B703A70A0059
:102070008346090005093E9785072300D70093F79B
:10208000F70FD1BD81479385418AA1463307F500FB
:102090000346070098413E972300C7008507E39752
:1020A000D7FE82800111A14717D5010013058506CF
:1020B00006CEA38EF188F9379305F100138501B0A0
:1020C000E53B05E1938701B083C77700A38EF188D4
:1020D0000347F10097D7010083D727046373F70004
:1020E0005D45F24005618280011117D5010013059D
:1020F000E50106CE413F9305F100138501B06D3B2C
:1021000029E10347F10097D7010083D787005D4598
:102110006369F70283C721B017D50100130505FFD6
:10212000A307F10085379387418A9C430347F10059
:102130009305F100A38307002383E700138501B013
:10214000A53BF24005618280411126C2AA8417D5C1
:1021500001001305A5FC06C622C42D379387418ACA
:102160009C438145014523819700A3810700A93342
:102170002A8401E926856D34294597200020E780CF
:10218000C0902285B2402244924441018280411194
:1021900022C42A8417D501001305C5F806C6DD350B
:1021A0009387418A9C43B240814523818700224422
:1021B000A38107000145410101B3411122C406C6B4
:1021C00037840040930700F82300F400A3000400C4
:1021D000A301040093078004A306F40083D7018AB7
:1021E000231CF40083D7418A231EF4002305040234
:1021F00023070402930790F82300F40093070004D8
:102200002303F402FD572303F40075328D472301A5
:10221000F400B2402244238E01884101828079710A
:1022200052CC56CA06D622D426D24AD04ECE5AC84E
:102230005EC662C4AA8A2E8ABDC131479387F5FF64
:10224000B387E702138781ACBA97239007002391E5
:1022500007009307FAFF3147B387E702138901AC00
:1022600001448149154C0D4B938B01AF3E9983C7B7
:102270003A0083C62A00A207D58F63E7F9022945F1
:10228000EFB081122285B250225492540259F24981
:10229000624AD24A424BB24B224C45618280239C17
:1022A00001AE239D01AE75B7B3843A0183C7140014
:1022B0006396870583C734008D8B6391670583C759
:1022C0002400139787016187635A0702BD8B330788
:1022D000890063140A0033878B002304F700B38757
:1022E0008B0083C58700050417C501001305C5428F
:1022F0001374F40FEFB04107E3638BF803C70400D6
:10230000C147E3EEE7F64E979379F70F8DB7B9C55E
:1023100031479387F5FFB387E702138781ACBA97FC
:102320002390070023910700B1489386F5FFB386F9
:1023300016030346350083472500938801AC220627
:102340005D8E094781470148154F894F138E01AFB4
:10235000B698C1426369C80001458280239C01AEE2
:10236000239D01AED1B73303050183461300639566
:10237000E603834633008D8A6390F6038346230089
:10238000939E860193DE8E41BD8A85C563DE0E0075
:10239000C6972384D700854783460300E3EED2FA2D
:1023A00036981378F80F7DB746972304D7000D476A
:1023B000E5B763D40E00F297E9BF7297FDB783C605
:1023C00031AFA5476390F60203C701AF894763FBAE
:1023D000E70003C6C1AF8547938501AC3148894802
:1023E000637CF600639FA60203C501AF1335350079
:1023F0003305A040420505A01387F7FF3307070305
:102400002E9703433700631AA3000347070063F6C0
:10241000E8001395070141818280850793F7F70F44
:10242000C1B741657D158280011122CC2A8417D560
:1024300001001305A5D026CA4AC806CE1389418AD1
:1024400091318327090081449305F100238287009D
:10245000A3829700138501B085340DE117D50100E3
:102460001305C5CC0531832709009305F1001385B9
:1024700001B023828700A38297003D3CF240624472
:10248000D244424905618280011117D5010013052C
:1024900065CA06CEC53E9305F100138501B0293CFF
:1024A00011E90347F10097D7010083D707C9637388
:1024B000F7005D45F240056182809387418A9C4325
:1024C000011106CE130730FA2380E700114723825B
:1024D000A700A380070023810700A3810700A38230
:1024E00007002383E700A38307009305F10013850A
:1024F00001B0D93219E50347F1008D4763E3E700E6
:102500005D45F240056182809387418A9C431307B1
:1025100030022380E7000D472381B7002382A70004
:10252000A380E700A3810700A3820700238307009D
:10253000A3830700814501456FF01F98011117C55E
:1025400001001305E53006CE22CC26CA4AC84EC685
:1025500052C4EFA0B175EFF08FEF8144014413092D
:102560004006054597100020E7802052EFF04FF419
:1025700019E5850493F4F40F636999240144050473
:102580001374F40FE31F24FDEFF0EFE217C5010011
:102590001305053AEFA091715944F1A8B3078900DA
:1025A00083C507004E850504EFA0115C1374F40F7A
:1025B00093170401C183E3E397FE2945EFA0D15EA1
:1025C0008357890097D9010083C969B54E85239A3D
:1025D000F1AE8357A90083C441B0239BF1AEAD3661
:1025E0002A8405E117C5010013050528A38831AF2A
:1025F000EFA09157D53C2A8497C9010093894926B9
:1026000015C5A28517C5010013050531EFA0D155E9
:1026100089472388F1AEA9A8B307890083C50700BD
:102620004E850504EFA051541374F40F9317040161
:1026300003D721B0C183E3E1E7FE2945EFA0D156DE
:1026400003C951B0639B040C83C4E1B0A147639DEF
:10265000F4024A852D3E2A844DF58D472388F1AE3C
:1026600017C5010013054521A38991AEEFA01164A0
:102670000545EFF06FDC2285F2406244D2444249C6
:10268000B249224A056182809D476395F40203C7DF
:10269000F1B08547631BF7104A85D53C2A8435F194
:1026A0008D472388F1AE17C501001305E51DA389E9
:1026B00091AE6DBF8D47639AF40E83C7F1B0054AA2
:1026C0006365FA0E8145138501B0913EAA8517C551
:1026D00001001305651CEFA031494A8583C901B18A
:1026E0007D342A84E31F05F0238891AE639B490162
:1026F00093073002A389F1AE17C501001305451BEE
:10270000B5B789476390F90C93073003A389F1AEFD
:1027100017C501001305051B91BFA5476397F40872
:10272000A5332A84E31F05EC83C521B017C501003A
:102730001305451AEFA0514303C721B0914763E049
:10274000E704238EE1AE4A8599342A84E31B05EA27
:102750008D472388F1AEA547A389F1AE854413893F
:1027600001ACB14917CA0100130ACA1783C7C1AF28
:1027700063FA970017C5010013050519C5BD238E1F
:10278000F1AED1B79387F4FFB3873703A145268510
:10279000CA97238007008D3B09C5A6855285EFA007
:1027A000B13C850493F4F40FD1B74A85EFF03F9E16
:1027B0002A84E31805E48D472388F1AEFD57A389E9
:1027C000F1AE7DB51304B00F2DBD03C521AFEFF001
:1027D000AFC617C5010013052518EFA0F138EFF0BB
:1027E0007F8C2A84E31F05E097D4010083C4F49210
:1027F000A20497D7010083C74792DD8C138901B0EB
:1028000097C901009389C90565B39387418A9C43A1
:10281000130730022380E70005472381B700238296
:10282000A700A380E700A3810700A38207002383FA
:102830000700A3830700814501456FF0EFE7797139
:102840004ECEAA85AA8917C501001305E5F822D442
:1028500006D626D24AD052CC56CA5AC85EC662C4E0
:1028600066C21304E00FEFA03130638709244E8560
:10287000EFF02FC917C501001305050EEFA0D12EEB
:10288000EFF05F822A84631905221389F9FF314A28
:10289000330A4903138B01B083578B00938401AC37
:1028A000938B090193FBFB0F5E8583CA41B0269A87
:1028B0002312FA008357AB002313FA00EFF0DF88EE
:1028C0002A84631B051EA3007A0117C501001305A6
:1028D000A5F9EFA07129EFF03F812A84631E051C42
:1028E00003CA51B097CB0100938B8BF79317040168
:1028F00003D721B0C18363E1E7082945EFA0D12ABE
:1029000083CBE1B063960A18A1476392FB08314478
:1029100033048902CE85138501B0EFF05F9F9149A2
:1029200097CA0100938A4ADF269483458400FD19E3
:10293000568593F9F90FEFA031230504E39709FEBB
:102940002945EFA071265285EFF07F842A842DED72
:10295000B1473309F9028D4717C501001305C5F1C9
:10296000CA942380F400A147A381F400EFA011349E
:102970000545EFF06FAC89A2B3078B0083C5070054
:102980005E850504EFA0511E1374F40F85B78D47C3
:102990006392FB1403C7F1B0854763EDE712CE8560
:1029A000138501B083CB41B0EFF07F87AA8517C5AF
:1029B0000100130565EEEFA0311B528583CA01B1FA
:1029C000EFF0EFFC2A8441C5A28517C5010013056D
:1029D00065E6EFA07119B1473309F90289472699D5
:1029E0002300F90071B75285EFF01FA419ED81495A
:1029F000B3073B0183C5070062858509EFA0D116A7
:102A0000E39899FF2945EFA0311A050A137AFA0FC6
:102A1000E31B7AFDB149B30939030D4B8547A699EC
:102A200023806901639DFA0293073002A381F900B4
:102A300063FA4A0117C501001305C5DBEFA0112792
:102A4000A381690117C50100130585E605B7014A91
:102A500017CC0100130CCCE0930C000455BF0947C0
:102A60006385EA001304B00F85B713073003A38111
:102A7000E90063FA470117C501001305A5D7EFA0C8
:102A8000F122A381690117C501001305A5E3F9BD72
:102A9000A5476391FA04B147B307F90217C50100CE
:102AA0001305C5D6A697A3815701EFA03120228533
:102AB0008545A13B2A845DD52285B250225492548B
:102AC0000259F249624AD24A424BB24B224C924CD2
:102AD00045618280314433048902CE85138501B07B
:102AE000EFF0FF82914917CB0100130BEBC2269444
:102AF00083458400FD195A8593F9F90FEFA0D1069B
:102B00000504E39709FE2945EFA0110A5285EFF06D
:102B10000FE82A84E31A05EAB147B307F9020D4723
:102B2000A6972380E70063930A00DE8AB147330942
:102B3000F902CA94A381540125BD797122D426D209
:102B40004ECE52CC56CA5AC85EC662C406D64AD0C9
:102B500066C20544938401B0B149138A01AC854A29
:102B600017CB0100130B4BC297CB0100938B8BBF8C
:102B700017CC0100130C8CBC83C7C1AF014563FFA8
:102B80008700B250225492540259F249624AD24A02
:102B9000424BB24B224C924C45618280EFF06F96D3
:102BA0002285EFF09F9171FD03C7040083C721B018
:102BB000058B01C793F6170081E6C146639AD70AD1
:102BC0001309F4FFB30C39032285D29C23905C01D6
:102BD000EFF0BF8E5DF583C71400A2856285898BF7
:102BE00013B717002381EC0091C35E85EFA0C17776
:102BF0001305800C97100020E78020E9914522857D
:102C0000EFF09F903DFD5A85EFA0510A05459710C2
:102C10000020E78080E72285EFF03F8A3DF183C7FF
:102C20000400C18BE5F71305400697100020E780EC
:102C3000C0E5D1452285D13EC1452285F93631F125
:102C40002285EFF09F8715FD83C70400858B91E7F0
:102C5000330939035299230009002285CD36E31246
:102C600005F20545EFE05FFD05041374F40F29B785
:102C7000898B9DCFC5452285493E17C501001305A7
:102C800065B2EFA0B10291452285EFF0FF87E31A0C
:102C900005EE054597100020E78020DF2285EFF044
:102CA000DF81E31005EE83C70400C18BFDF36DBF28
:102CB00045FF1309F4FFB3073903D29783C7070011
:102CC00081CBA28517C50100130545AFEFA0C169EF
:102CD0003309390383C72400858B529923000900E7
:102CE000C1D7C1452285153641B703C701AF894712
:102CF00063FCE70203C731AFA5476317F702411131
:102D0000014506C6EFE0FFFF0D3DAA8519C517C5B1
:102D100001001305E5A0EFA021650545EFE0DFF117
:102D2000B240014541018280014582809387418BF9
:102D30009C43411106C691C382979387818B9C4324
:102D400091C38297172700200357E7199307C012F2
:102D500063F7E70403D541809306B01263E4A60449
:102D60009386018B03A3060063070300B24013059B
:102D7000C012410102830507098F3385A740E5474B
:102D80003305F5024207418309839307F7FF3E9518
:102D90003345E5021375F50FB240410182801305FA
:102DA0004006DDBF0145CDBF03A84500411126C245
:102DB00006C622C48347180003480800A944A20796
:102DC000B3E70701C2070D68C1871308289063960F
:102DD000070385473284EF505059AA8419ED938731
:102DE000C18A9C4399CB0345140003470400220584
:102DF000598D1335150005058297B240224426856A
:102E00009244410182802D452DEFD841411122C4C9
:102E100026C206C68347170003470700B684A207E9
:102E2000D98F0D67930697A13284639CD702FD3D2D
:102E30009727002083C7070B6376F50097270020AC
:102E40002382A70A85472390F4009727002083C791
:102E500067092300F4000145B24022449244410135
:102E60008280130787902945E398E7FECC45894780
:102E70002390F4000946228597100020E780A00BDC
:102E8000D9BF828083474500858BBDC7011122CC05
:102E90002A8403552500938501B806CEEF50B0472C
:102EA000058939C503552400014781460546ED458E
:102EB000EF50B0002AC60DCD97270020938707B6A4
:102EC00083D7A70201462C002314F1008547231560
:102ED000F1009727002083C7E7002300F500035582
:102EE0002400EF60301F09C5ED452800EF50D014D5
:102EF000F240624405618280828041654111938580
:102F000001B87D1506C6EF70100EB240972600205E
:102F10009386C6B54146954517250020130505B093
:102F200041016F70900023A6A18A8280411122C4C2
:102F300006C6854709446313F5028347060001442A
:102F40002384F18A172700200347C7F96378F70025
:102F500017050000130545F3EF9070382285B24045
:102F600022444101828085476303F50209C909476C
:102F70006304E5020D476308E5020945828097274F
:102F8000002083C727F62380F500014582809387C0
:102F9000818A83C70700C5BF9727002083D7A7A8CA
:102FA0002390F500DDB71387818003570700239234
:102FB000E50017270020130767A68356A7020357CB
:102FC000A7032383F5002390D5002391E50075BF67
:102FD000411106C6A13B9727002083C7A7F0637C59
:102FE000F50097270020238FA7EE17050000130593
:102FF000A5E9EF90D02EB2400145410182804167A2
:103000007917630CE502411122C406C685472A845C
:10301000639AF50022852244B240938501B84101AC
:103020006F70607C89476396F5008545EF90B02509
:1030300075D1B2402244410182808280CC4141114D
:1030400006C6328503C6150083C5050022064D8ECF
:1030500042068D654186138875A2630C060F63488E
:10306000C804138845A26306060B634AC80093850B
:1030700035A26309B60623900600294679A0138875
:1030800055A26308060B938565A2E316B6FEC145FB
:103090001D4663ECE5064546198E63F3C7003E8680
:1030A0002390C60097C501009385058D89A81388D4
:1030B00095A26300060F634E060B1388A5A2630A50
:1030C000060F938505A5E318B6FA99451D4663EEEC
:1030D000E502198E63F3C7003E862390C6009385F0
:1030E000018131A89D451D4663E1E5022146198E07
:1030F00063F3C7003E862390C6009385C18BBA95C3
:1031000097100020E78020E30146B240328541015C
:103110008280AD451D46E3EAE5FE3146198E63F334
:10312000C7003E862390C60097C501009385858819
:10313000F9B7B1451D46E3EAE5FC3546198E63F360
:10314000C7003E862390C60097C5010093858587FA
:103150007DB7C1451D46E3EAE5FA4546198E63F39E
:10316000C7003E862390C60097C50100938505825F
:1031700079B7C1451D46E3EAE5F84546198E63F384
:10318000C7003E862390C60097C5010093858584BD
:10319000BDB7C1451D46E3EAE5F64546198E63F322
:1031A000C7003E862390C60097B501009385457FF2
:1031B000B9B7B5451D46E3EAE5F43946198E63F320
:1031C000C7003E862390C60097B501009385C57958
:1031D0003DB7972600209386269D4146CD4517256D
:1031E0000020130565896F70405482809387818D1C
:1031F0009C4303C7C18C83C6B18201E781473E85EA
:10320000828003D607006316A60003C66700E308A2
:10321000D6FE7D171377F70FA107C5B7B2862E86A6
:10322000AA8517B501001305257C6FA0E1130111D4
:10323000930500030D4506CEEF30C03B9305000516
:103240001145EF30203B9305C0030545EF30803A30
:1032500085471306F100854513055030A307F1009B
:10326000EF708124F240056182808547631AF50082
:103270001166130686A9894503C5D18C6F10804B52
:1032800089476317F500894503C5D18C6F104061EC
:10329000828085476398F50019E22383B18C238EE1
:1032A000C18C828009476399E50019E62383F18C7C
:1032B00003D5418C6F00807482809387018D9C437D
:1032C000011122CC06CE2E8481CB9C4791C78297D8
:1032D000F2406244056182806C0013057040EF503B
:1032E0005130324681452285EF50F170D5B74111FA
:1032F0009397050122C406C6C1872E8463DF0700A9
:1033000003C5D18CEF00D07119C1EF00D06A2165DF
:10331000218DB24022444101828093F7150091CF64
:1033200017260020130606899385C18103C5D18C19
:10333000EF60B16A13451400E9BF93F7250001451A
:10334000E9DB79311166130686A9894503C5D18C5D
:10335000EF10403E134524006DBF797126D24ECE4A
:1033600006D622D44AD052CC9147AA84AE8963149F
:10337000F50483D7A5001306E100854513055030F9
:103380002392F18C230701002383018CEF70C1117C
:103390009387018D9C4391C7DC4781C7CE852685E5
:1033A0008297B250225423A4918C02599254F2492C
:1033B000624A456182801387818C1843E31AF7FCC7
:1033C000854503D5418C2539854503D5418C692533
:1033D000C16703DA418CF917631BFA0205449305B0
:1033E000E100130550412383018CA38581822307CB
:1033F0000100EF50111F8347E100B1E303C7C18D06
:103400009147E317F7F82535238E018C51B7938741
:10341000818D03A9070003C4C18C69D0035529001D
:1034200011C99305E100EF50705309C54C45528511
:10343000EF70603B7D141374F40F2109F9BF93877B
:10344000418D9C4383C74700898BCDDB9305000AE0
:103450000D45EF30201A9305000A1145EF30801911
:1034600081450545EF3000191306E1008545130538
:10347000503023078100EF70210349B70111170570
:103480000000130505E706CE22CCEF10006513847B
:10349000D18C85471306F10085452300A400130550
:1034A0004041A307F100EF50717C7D55EF40506A19
:1034B0007D55EF702030313BEFF03FA439231705E5
:1034C00000001305C5DAEFF01FA61705000013056D
:1034D00005D21523034504008545EF102013F24063
:1034E00062440561828023A8B18C23AAA18C8280CA
:1034F00023ACB18C2386A18C82809387818C9C43E2
:10350000797106D622D426D24AD04ECE52CC11475B
:10351000639BE70483C7618C414481CF9387818D8E
:103520008043B284B68983C7C18C03C7B18299EB4B
:1035300055442285B250225492540259F249624AAB
:103540004561828083464400639AA6008346540006
:103550006396B600834664006380E606FD1793F722
:10356000F70F2104E9B709474144E384E7FC2C0045
:103570001305504123040100EF50B1068347810039
:103580008DCB930500020D45EF30C0069305000377
:103590001145EF30200695450545EF30A0058547DC
:1035A00030008545130550302304F100EF60D16FE2
:1035B00049B7B5394144B5BF0355240093056100AF
:1035C000EF50D03935D54C4503D5418CEF50A05440
:1035D000058939DD13990401135909010147814611
:1035E0004A86ED4503D5418C035A0400EF50E00CA8
:1035F0002AC64D441DDD2686CE85231441012315A0
:10360000210197100020E780009301462C0003D58C
:10361000418CEF60202C2A84E30D05F0ED45280055
:10362000EF50802139B7C841011122CC06CE328437
:1036300003461500034505002206498E19CB0D6887
:103640001308B8A42D45630A0607F24062440561D9
:1036500082800D651308D5A463000603130825A214
:10366000630C060175781308E85C32984208135819
:103670000801854863EF080303D5A50036C632C4A8
:10368000EFF0DFB6B24615C19387018D9C43224609
:103690008345550003A30700A2876244F240034517
:1036A0004500368785460561028323900600014563
:1036B00069BF1308B5A46317060303D6E1821D454D
:1036C000E375C7F8198E63D3C7003E86CC452390B7
:1036D000C60042064182BA95228597100020E780F5
:1036E0008085F1B79307A5A46318F600914723904E
:1036F000F6001146CC45CDB7930785906317F600C9
:1037000089472390F6000946F5B79307E5A4631AA5
:10371000F600DC452390160183C707002300F40060
:1037200079B713057590E314A6F8D9BF011122CC1F
:1037300006CE26CA4AC82317D1002D4431EBDC41FE
:103740002E89B28403C4170083C7070022045D8C4E
:103750008D679386D7A46306D400938627A363104E
:10376000D4040355A900EFF07FA819E101440DA08E
:103770009387018D9C43834555000345450003A86D
:1037800007002286A6871307E100814602982A8453
:103790002285F2406244D244424905618280938688
:1037A000C7A46314D4028357E10005473544E3916D
:1037B000E7FE0345060013040008E3EBA7FC93872C
:1037C000018D9C43DC43829755B793862790631AFB
:1037D000D4028356E1008547EF5020392A844DF901
:1037E0009387818D8356A9009C4303C7C18C3DDF1D
:1037F00003D627006302D6047D171377F70FA107BE
:10380000FDB79387E7A4E313F4F68357E100054778
:103810003544E39FE7F60345060013040008E3E997
:10382000A7F6DC452380A7009387018D9C433335A1
:10383000A0000905DC4341BF1387018D184303C570
:10384000470083C5570083C714000328070003C738
:103850000400A2078946D98FC207C1870547638341
:10386000E7008D460D66A6871307E1001306269034
:10387000029839BF41654111938501B97D1506C68E
:1038800022C426C24AC09714002093846433EF6098
:103890009075971600209386A6444146C945268513
:1038A000EF60B068CC4C2A890945EFF0CFEB9387E5
:1038B000818383D70700138401BA138741832312BE
:1038C000F40083D7A40C03570700938501BB231092
:1038D000F40083D7A40D2316E40003D7A41023110A
:1038E000F4000D4585472303F4002314E400230767
:1038F000F40023150400EFF00FE7A2850D45EFF06B
:103900003FBFB24022444A8592440249410182802D
:103910008D679387D7A40145631FF6008D4729451E
:10392000639BF500854735456397F600834707009D
:103930000145238FF18C82808D679387D7A4631E06
:10394000F6008D47639BF50083C7E18D2300F700E8
:1039500085472390F6000145828023900600E5BF4D
:103960000145828025E303A84500AE8883471800FF
:1039700003480800A207B3E707010D68930EF8A4F7
:10398000639AD70391473548639FF60203A5C800A1
:103990004111B285114606C697000020E780A05964
:1039A0009387C18E9C4305458297B240014842856A
:1039B0004101828093082890294863961701854722
:1039C0006F50A01A2D484285828041654111938530
:1039D00081BB7D1506C6EF601061B24097160020CE
:1039E0009386C636414699451715002013050530C4
:1039F00041016F60905323A6A18E828001119385AF
:103A000081BB22CC06CE2A84EF50E010058929C163
:103A1000014781460546ED452285EF40104A2AC6FA
:103A200005C9971700209387672C83D7A705014600
:103A30002C002314F10085472315F1002300050015
:103A40002285EF50306909C5ED452800EF40D05E72
:103A5000F24062440561828041677917630CE50298
:103A6000411122C406C685472A84639AF50022853F
:103A70002244B240938581BB41016F60D056894793
:103A80006396F5008545EF90000075D1B240224461
:103A9000410182808280411106C6EFD09F8FBD47D1
:103AA00063F4A700EFD0FF8EEFD0FFB6BD4763F4FD
:103AB000A700EFD05FB6B24083D5A18903D5818935
:103AC00041016F00506F411193962500AA852D4545
:103AD00006C697000020E7802011B2400145410151
:103AE0008280411126C29394250022C44AC02A84B0
:103AF0003289A686AA850146254506C6970000207C
:103B0000E780800EA6864A86A28529459700002078
:103B1000E780800DB24022449244024901454101B0
:103B20008280011122CC06CE3714004026CA4AC832
:103B30004EC652C483447405034AB40583498405C0
:103B400003499405EFD07F828347A40593F4F40FD3
:103B5000137AFA0F93E71700230DF40493F9F90F82
:103B60001379F90FB717004003C7A705058B6DFF41
:103B700003D5C705A38D4705238C3705A38C2705DF
:103B8000A38B9704F2406244D2444249B249224A8C
:103B90000561828041119397050122C406C6C18741
:103BA0002E8463DB0700AD2D11C131252165218DE8
:103BB000B24022444101828093F7150013C51500DD
:103BC000E5FB9397250163D00702EF107158E135AB
:103BD00037F60200130606E0896503C5018FEF0082
:103BE00070350965E9B7939715010145E3D207FCE4
:103BF00017B50100130505E9EF90510B130600649A
:103C0000916503C5018FEF00F03211654DB71D714D
:103C1000494697B50100938565E217B50100130584
:103C2000650B86CEEF00B01801E917B5010013054A
:103C300025E2EF90B10701A037F700E0F9575CC724
:103C4000FD571CCB8566B7E700E023A0D71013060D
:103C5000701010C3B8434146B0C323A0D718B8C3EF
:103C6000010001001306C00381454808EF00100E53
:103C700097170020938787633ECA896793870780D9
:103C8000231CF100ED47A301F1029307A0102312BA
:103C9000F102D1472303F102A167938707E03ECEEB
:103CA00097070000938767E2BEC4970700009387D9
:103CB00087E3BEC685472304F102B5472308F10216
:103CC00097E7FFFF938747E43EDAB7F507009707CA
:103CD0000000938747E53EDE814697070000938703
:103CE000C7DB7000E1051945BEC097000020E780E2
:103CF000A0EF58088147994670003E96034606009B
:103D000085070507A30AC700E398D7FED24791C7E6
:103D10000357810185676373F70001A04808EF002E
:103D2000505FAA8501C917B501001305A5D3EF900F
:103D3000A16301A0F64025618280411117050000B2
:103D4000130585E506C622C4EF0030591384018FA0
:103D50002300A4002928034504002244B24037F67A
:103D60000200130606E0896541016F00B01C411195
:103D700006C622C493067005371400402300D404FD
:103D8000130780FA2300E4048347F40293F7A70F94
:103D9000A307F4022300D4042300E4048347F402BD
:103DA00093E72700A307F402FD311305407E2300AB
:103DB000040481470147814605468545EFD09FA908
:103DC0002244B240014541016F10800182807D157F
:103DD000954763E7A70C17B701001307E7CA0A0561
:103DE0003A951C41011106CEBA9782872C00130523
:103DF0004030EF60A15D2C000545EF30D05317B582
:103E00000100130565CBEF90616A8DA817B501001D
:103E1000130585CBCDBF83D7A5000D6613060620FD
:103E2000914503C5E1842396F184EF00B01017B5E6
:103E30000100130565CAC1BF17B50100130585CA86
:103E4000D9B783C72500114717B50100130505CB66
:103E50006380E70419476396E70283C5650017B5D9
:103E60000100130565CBEF90215085473000854553
:103E7000130550302304F100EF600163F240056147
:103E800082801547E393E7FE17B50100130585CA45
:103E9000EF90C161D9BF17B50100130525CBA5B7B8
:103EA00082803A883E8789E6834608006FF05FA6E5
:103EB00085476395F600C2866FF01FA88947639F08
:103EC000F60041111306401F894503C5E18406C66B
:103ED000EF005006B24001454101828001458280D9
:103EE00041119397050122C406C6C1872E8463DD64
:103EF000070003C5E1842D2611C1752C2165218D94
:103F0000B24022444101828093F7150013C5150089
:103F1000E5FB93F7450099CF83C7E1841307401F62
:103F200081462146A14503D5C184EF606124134534
:103F30004400F9B793F725000145F9D3FD28294638
:103F4000894503C5E184EF00E07E134524004DBFA1
:103F50000111170500001305E5F806CE22CC26CA8C
:103F6000EF00B0379384E18405442380A4007000FF
:103F700085451305503023068100EF60E15213861A
:103F8000C1839D4513056030EF6001521716002074
:103F9000130686DDE94513057030EF60E15017B672
:103FA00001001306E6AFD5450145EF40802C8D4753
:103FB00070009145130570402305F1002304810032
:103FC000A305810002C6A3040100EF50214A30007E
:103FD000854513050040EF50614913069100854562
:103FE00013051040EF5081481306A10085451305C5
:103FF0002040EF50A1471306B100854513055040FE
:10400000EF50C14699477000854505452306F100EC
:10401000EFE0DFF1EFF01F86971500209385C5D301
:1040200013854184EFF02FCC03C504008545F92B9F
:10403000F2406244D24405618280411106C622C426
:1040400026C237870040834767000145858B99CB9F
:10405000054423038700EFD07FB6D5476314F500EE
:10406000238E818883C7C18981E7D547631CF5000A
:104070001305800C238E018897000020E780E0A0C4
:10408000EFE0CFCBEFE07FC613053003EFE02FB3B7
:10409000C167FD17630AF5081374F50F2285EFD089
:1040A0005FC62DCC9307F4FF31473387E702938730
:1040B00001ACBA9783C4870093F7F400A9CB93951A
:1040C0008401E185FD85014693F5050C13E504099E
:1040D000EFD07FC90DED93C4040821C47D14314590
:1040E0003304A402938701AC3E9423049400B78761
:1040F000004083C787001147631BF70097360020F5
:104100009386C69A114685450145EFF00FBF2244BC
:10411000B2409244054541016FD01FB283C481AFC4
:1041200061BF238C91AEE1B7B24022449244410179
:10413000828041111305800406C697F0FF1FE780B7
:10414000C07C154597000020E780209485450545F3
:10415000EFD0FF8D371700408327870A8D45130561
:10416000002093E707202324F70AEFD0FF81EFD048
:104170009F9F17B501001305E5B5EF902133EFF0D0
:104180001FA9EFF09FBBEF60A158EFF02FAFC9332D
:1041900097000020E780409323AC05FE1C4191E787
:1041A000010001000CC18280BA8703A787FF6DFF61
:1041B00023ACB7FE82801DC18346E5FF1307F00FD5
:1041C0009147639EE600411106C697000020E780F4
:1041D000E07AB24081473E854101828095473E8525
:1041E000828001E9014582800145B24022444101BB
:1041F0008280411122C42A84210542059305D004FE
:10420000418106C697000020E780A06D71DDFD5753
:1042100023200500231285002303F5002105F1B7B3
:104220001387818F1C43411122C426C24AC006C68F
:1042300001440149BA8489E7A1659D250DC401A8FF
:1042400003C7E7FF6318A7021DC8A165C1269840F0
:10425000832784FF6317E40223ACF18EFD57232CE0
:1042600004FE230FF4FE2285B24022449244024908
:104270004101828011E03E8983A787FF6DBF3E84A4
:10428000E5BF232CF9FED9BFA9C9411122C406C636
:104290002A849737002083C7378D2E856368F40002
:1042A000193F0D45B24022444101828083A785FF1A
:1042B00099E703C7E5FF9307F00F6305F700E53DB6
:1042C0001545CDB7238F85FE1385818FF135228566
:1042D0002244B240A165410115AE1545828023AC50
:1042E000018E8280938701919C4399E33E85828071
:1042F00003D727006316B70003C70700E308A7FE2C
:10430000DC47E5B74111939705014AC006C622C4B0
:1043100026C2C1872E8963DE0700193711C1613DAE
:1043200021653345A900B24022449244024941012B
:104330008280AA860145E5D901443D47B3578940AB
:10434000858B95CB938741908443BD4791E281470C
:10435000A2978E070545BE943315850013140501F9
:104360009C40C8404180829723A0040023A20400FF
:10437000334524014DBF0504E312E4FC0144CDBFE5
:10438000972700209387877A9C53411122C406C641
:104390001384018595C7829723A8A1840840B74755
:1043A00003009387D73F3305F502B7A7260093870D
:1043B00037ECB24022443E9523A8A184410182807B
:1043C000972700209387477A18409C4BBA9723A8D9
:1043D000F184E9B79387C18F90439726002083C665
:1043E000B678814713F7F70F6360D70A17370020B5
:1043F0000347B78B914763E0E70A9737002083C7ED
:10440000678F918BC9EB0111680006CE22CC26CABA
:10441000EFC0602EFD56630FD50C32479727002062
:1044200083C7F77163F3E70C172700201307C773DF
:104430004047172700200347A7706305D406058B64
:1044400021CF51473304E40263F1870A970000202B
:10445000E78080D3B2476373F400A2871727002058
:104460000347F76D998F3E95972700209387076C38
:104470008387470163CD0702B707C0A86369F502C8
:10448000B70740573E9525A0850713971700329729
:104490000357E7FF21DB8280130790023304E40215
:1044A00005805DB762076187635707001D8D19E9B5
:1044B0003705C0A801A8E37BF5FE3707C0A8B307FE
:1044C000F7403E959727002093874766DC538297F5
:1044D00009ED972700209387E77C9C4F99C7EF1041
:1044E0004102EF10C15AEF003176F2406244D244EB
:1044F000056182809727002093870767DC47E38662
:10450000A7FE172700201307676283464701BA8476
:10451000858A9DC65144338487029727002083C72C
:104520001762E3F487FC97000020E780E0C5972737
:10453000002083C7D7601D8C2295838744011DBF4F
:1045400013049002338487020580C1BF2A9609E5CF
:1045500082800505A30FB5FEE31DC5FED5BF8147CB
:104560003307F5000307070019E33E8582808507BE
:10457000C5BF01112E8626CAAA841315060193050C
:10458000F004418122CC06CE32C697000020E7809D
:1045900040352A8419C53246A68597000020E78059
:1045A00080992285F2406244D2440561828081472D
:1045B0006314F600054582803307F5008507B3864E
:1045C000F5000347070083C6F6FFE383E6FE0145D7
:1045D00082809307F6FFBE952A966313C5008280FA
:1045E000FD1583C715000505A30FF5FEFDB781472F
:1045F00011E9014582803307F50003470700E31AFC
:10460000B7FE8507E319F6FE05458280972700204F
:1046100083C79755637FF5001387C18F93171500E4
:1046200008433E9583570500DD8D2310B5000145F5
:1046300082800D458280FD57011117270020232B12
:10464000F7529387019122CC80434EC697290020D0
:104650009389C94D26CA4AC852C456C206CE5AC00A
:104660002A8981444E8A972A0020938AEA4F184467
:1046700081476374E900B307274103A749021CC4BB
:1046800009CB03A7CA0063F6E700172700202323FE
:10469000F74EA9E78355240085ED5C44A9E823A8DB
:1046A000F190032BC400228597000020E780002DA5
:1046B0005A8455FC83274A028DCF6244F240D2448B
:1046C0004249B249224A924A024B05616FF09FD09B
:1046D00003450400253F5C4081CB1CC48357240064
:1046E000CDDFA2844044F1B71C44C5DBC5BFDCC4A8
:1046F0004DBFF2406244D2444249B249224A924AF2
:10470000024B056182809727002083C7F7456371BC
:10471000F5021387C18F93171500084393C5F5FF62
:104720003E9583570500FD8D2310B500014582801D
:104730000D4582809727002083C717436364F500E7
:1047400001458280411122C426C24AC006C62A847D
:104750002E89B284EFF01FB901C504C505452DA00F
:10476000936504F0C205C181414597000020E780B0
:1047700040170DE1972700209387473B9C5B81C73B
:10478000A285114582970145B240224492440249D4
:1047900041018280938701919C438DE323A8A190DE
:1047A00085472326050004C5231125012300850024
:1047B000A300F5002322050055B7BA87D84775FF37
:1047C000C8C7F9BF45C539715AD0138B419022DC57
:1047D00026DA4AD84ED652D45ECE66CA6AC86EC6AB
:1047E00006DE56D262CC3689328AAE89AA8401446A
:1047F0005A8DB94D854BF94C03270B00131C34001F
:10480000937AF40F62971C43A9EF13B5FA0013458E
:104810001500B3978B0063F65D01930714FFB39700
:10482000FB0093950701C181528629371DC9832753
:104830000D000145E29784C323A2370163040900F8
:1048400023005901F2506254D2544259B259225AAB
:10485000925A025BF24B624CD24C424DB24D2161F6
:1048600082800504E31A94F92145E9BF0945828055
:10487000411122C426C24AC006C6AA842E893284A7
:10488000553DCA852685EFF0FFA509C940C1014500
:10489000B240224492440249410182802145CDBF69
:1048A000411122C426C24AC006C6AA842E89EFF04E
:1048B0007FA32A8419C1231105009727002083C7ED
:1048C000A72A6394970023942191CA852685253DC4
:1048D000014511E01945B240224492440249410188
:1048E00082807547636BA70413874190144341117D
:1048F00026C293143500A696944222C406C6AA87FF
:104900003A84094595C613B5F70039471345150094
:104910006373F700C5178545B395F500C205C181DE
:1049200041371C400145A69723A0070023A207009A
:10493000B240224492444101828009458280411163
:1049400006C6EFF03F9A09C50845B2404101828092
:104950000145E5BFF54763EDA704938741909C436C
:1049600013173500BA979843894721C7011126CA02
:1049700006CE9334F50022CCB94793C4140063F3F8
:10498000A700451505443314A400420441802EC6F7
:104990002685A2856D378947324609C5A2852685B9
:1049A000513B8147F2406244D2443E85056182809A
:1049B00089473E8582802390A1902391B190828087
:1049C000411106C623A6A1900295B2409727002068
:1049D00023A6A71A014541018280994763E9B700E0
:1049E0008A05972700209387671ABE9588C1828021
:1049F000411106C6EF50D158714681451725002058
:104A00001305C518EFF09FB4130640028145172522
:104A1000002013056515EFF07FB323A8019023A6AE
:104A200001909727002083C7271213D527008D8B6D
:104A30003E958D473305F502930510103505137526
:104A4000F50F972700202382A71299473305F50217
:104A50001305050F97000020E780A0E823A2A1908E
:104A600035C9994717260020034626103306F6025B
:104A700081451306060FEFF07FAD938741909C436D
:104A80009387070F23AAF190172700200347E70D0C
:104A90000A07BA9723AEF18EEFF07F844D269387F5
:104AA000419198439727002083C7170C93962700BE
:104AB000BA96170600001306268590C29386270033
:104AC000850793F7F70F8A0797250020A38ED5084F
:104AD000BA9790C3B240410182809727002083C7D4
:104AE000B708172700200347470863F1E702138739
:104AF000419118439386170017260020A306D60677
:104B000093962700369708C33E8582809307F00F5F
:104B1000E5BF1C41638F071841777D8FB7060020E2
:104B200089476319D71803574500630507184111D2
:104B300022C419462A849305F00F590506C6EFF0E2
:104B40001FAB05478D476301E5161C4481CB5858C0
:104B50009947630B0714185C630807141306C00316
:104B6000814517250020130565FCEFF03F9E1306D5
:104B7000C003A28517250020130545FB97F0FF1FF2
:104B8000E780603B9727002083D707FB972600200C
:104B90009386C6F999E79307001017270020231D75
:104BA000F7F89727002083C747F991E7854717272C
:104BB00000202304F7F89727002083C717F891E710
:104BC000ED4717270020A30AF7F69727002083C791
:104BD000E7F691E79547172700202301F7F6972777
:104BE000002083C7B7F591E7854717270020A30763
:104BF000F7F49727002083C7B7F499E783C7060126
:104C000017270020A30EF7F29727002083C727F36A
:104C100091E7D147172700202303F7F297270020B9
:104C200083C7A7F295E717270020034767F11316FC
:104C3000870161869307C0026348060093771700D7
:104C400093B717009387D70217270020230FF7EE9B
:104C50009727002083C7B7EE95E717270020034763
:104C600027EE1316870161869307C002634806008A
:104C70009377170093B717009387D7021727002061
:104C8000A30FF7EA8347D40191E78947172700204C
:104C9000A30CF7EA9C5691C7829797270020239888
:104CA000A7ECEFF0FFD48147B24022443E8541019A
:104CB000828089473E858280011122CC06CE2A84DB
:104CC0002EC6EFF0EFEBB245F240818D33A5A50281
:104CD000229562441375F50F05618280011122CC83
:104CE00006CE2A842EC6EFF0AFE9B245F240818DA0
:104CF00033A5A50222956244420541810561828067
:104D0000011122CC06CE2A842EC6EFF06FE7B24501
:104D1000F240818D33B5A5022295624405618280FF
:104D200097270020938787E0985725C3411122C415
:104D300026C206C6BE84029717270020035727E322
:104D40002A8441C7BA876373A700AA87C207C183B1
:104D5000BA866373E400A286C206C182958F51476A
:104D60006355F706DC5491C38297854717270020C7
:104D7000230EF7F2EF00D13D97270020239987DE1D
:104D8000B24022449244410182809727002083C789
:104D9000E7F19DE7972700209387C7F083C7970027
:104DA000850793F7F70F17270020A301F7F0A18BD2
:104DB0009DC7854717270020231AF7EE6F00313F64
:104DC00097270020A38407EED5BF9727002083C72D
:104DD000E7EDDDD72244B24092444101C5B782805D
:104DE00097270020938787D4D857011122CC06CE6D
:104DF0003E8401C72AC60297324511CD23ACA1904B
:104E000017F5FF1F1305C539EFF09FBBF240624451
:104E10000145056182808307440163DD0700972710
:104E2000002023AF07D497F7FF1F9387073223ACE7
:104E3000F190F9B797F7FF1F93870735CDBF0111A1
:104E400022CC17240020130464CE084406CE26CAC0
:104E50004AC801E90545F2406244D244424905612D
:104E600082805C58E5DB185C75D7700085458297B9
:104E70001844B247E300F7FE9305E004172500202D
:104E8000035585CB97000020E780A0A517270020B9
:104E9000232AA7CE61D1172600200356E6C9930521
:104EA000F00FEFF0AFEA8144172900201309C9CBB6
:104EB0009727002083C767C80326C90163C1F4028E
:104EC000328597000020E78060AB014597270020DE
:104ED00023AA07CA9727002023A807CAADBF972592
:104EE000002083D565C5B38795020844185C898185
:104EF00085043E9508C2029765BF411122C417245C
:104F000000201304A4C21C4426C206C64AC097242B
:104F10000020938464C591EBC84C35E9B24022442B
:104F2000924402490145410182801C5CF5D7DC4C6A
:104F300099EF9305E004172500200355E5BF97007E
:104F40000020E780009A9727002023ADA7C2C84C15
:104F500061D517260020035626BE9305F00FEFF00B
:104F6000EFDE01499727002083C727BDD04CE355CA
:104F7000F9FA9725002083D525BC338525031C44E9
:104F8000898105093E951C5C08C28297E1BF9700A4
:104F90000020E780A09E9727002023A507BE972723
:104FA000002023A307BE9DBF011156C2972A0020EF
:104FB000938ACAB783A78A0022CC4AC84EC606CEB7
:104FC00026CA52C45AC0AA892E8432896385072210
:104FD00003A74A03630707147D476366A714972452
:104FE0000020938464B803AAC40163170A0A956574
:104FF000938515E017250020035505B49700002080
:10500000E780208E9727002023AEA7B62A86630A62
:10501000051083A74A0303A58A009725002083D59E
:10502000A5B18981829783A78A0003AAC4011727A3
:105030000020232BF7B48947639CF908C14763120A
:10504000F40E9725002083D525AF938505FC914765
:10505000B3C5F5028A05D29503C705009307A005DD
:10506000631DF70A83C715006399370B4A852286AB
:10507000910597F0FF1FE78000ECDC4C52856393AD
:1050800047150145F2406244D2444249B249224A9E
:10509000924A024B056182809850E38EE7F895654D
:1050A000938525E017250020035505A997000020CA
:1050B000E78020832A8A35C52A8683A74A0303A569
:1050C0008A009725002083D525A789818297A5B7D7
:1050D0008D47639DF900C1476315F40497250020AF
:1050E00083D585A5938545FDF199B5B79147639A19
:1050F000F900631834039725002083D5E5A3A11593
:10510000E5B7C147639FF900A14763EC8700972586
:10511000002083D565A2C115C1BFDC4C52856397C1
:10512000470D294585B71307F006568B6361A70A1B
:10513000130A05FE1947334AEA02172700200357CE
:10514000A79F972A0020938A2AA2330AEA023E9A4E
:1051500083A70A026395470183A4CA019DE49305CE
:10516000E004172500200355259D97F0FF1FE780D9
:105170004077AA845DD583274B039725002083D5EC
:10518000A59B2A8689815285829791451307A005A0
:10519000898193972500A69783C607006393E60449
:1051A00083C61700639C360385058A052286A6956B
:1051B0004A8597F0FF1FE78000D883A7CA01E382E2
:1051C00097EC268597F0FF1FE780407B5DBD1307B6
:1051D000E007E368A7F4130A05F985B783D527002C
:1051E00045BF83A7CA01E38E97F2268597F0FF1F7C
:1051F000E780C0783DB7972700209387E796CC4F8C
:105200008DD191479306A0058983139727002E9788
:1052100003460700E317D6F003461700631C360168
:1052200085078A072286BE954A8597F0FF1FE7808B
:1052300080D081BD83572700C1BF97270020938767
:10524000E78E984739C79C5FA9C705476313E504F4
:10525000411122C41724002013040491504C06C6A7
:105260000DC608509725002083D5058D898182972A
:10527000484C97F0FF1FE78060709727002023A31A
:1052800007909727002023A10790B24022444101B4
:1052900082808280011117270020130727894EC6BC
:1052A0008329870022CC26CA4AC806CE52C456C2D9
:1052B000AA842E843289638A09201C5FBA8A99EBFA
:1052C0002945F2406244D2444249B249224A924AB4
:1052D000056182805C5BEDD7FD4763E9A70E9729E6
:1052E00000209389698883A7C901B1CB03A58A00EF
:1052F00083A709026395A70689476393F408C1470A
:10530000E310F4FC1725002003550583914713058E
:1053100005FC3345F5029317250003A5C901228634
:10532000CA853E959307A0052300F500A3009500CC
:10533000110597F0FF1FE78000C0014559B793059D
:10534000E004171500200355257F97F0FF1FE78025
:1053500040599727002023A7A78249F995B783A72B
:105360004A0303A6C9019715002083D5E57C8981EE
:10537000829783A78A00172700202327F780ADBFD5
:105380008D47639EF400C147E31CF4F2171500201B
:105390000355857A130545FD9377C5FFBDBF91473A
:1053A000639AF400E31E94F0171500200355C578A6
:1053B0002115DDB7C147E395F4F0A147E3E287F09B
:1053C00017150020035545774115F9B79307F006E7
:1053D00063EAA706930705FE1947B3C7E702171745
:1053E000002003576775171A0020130AEA77B3875E
:1053F000E702BE998327CA01A9CF83270A02639ACD
:1054000037070325CA0191461308A005FD5593D718
:105410002600C207C183139727002A970346070077
:10542000631D0607834817000356270063959806F7
:10543000B306D64063CF860485078A072286CA85CD
:105440003E95C5BD9307E007E3ECA7E6930705F992
:1054500079B79305E004171500200355E56D97F023
:10546000FF1FE78000489717002023ADA77051F574
:1054700081BD83A74A030326CA019715002083D55F
:10548000A56B89814E8582979717002023AE376FD1
:105490008DBFA300B700B2869DBFB38586001716E7
:1054A0000020035666699105130606FCE3FAC5E081
:1054B000130634001376C60F1106B29623000701B7
:1054C000A30097002311D70085BF9717002093876B
:1054D000A769D44FBE89A1C203A5C901914613088B
:1054E000A005FD5593D72600C207C1831397270057
:1054F0002A970346070063160605834817000356DC
:10550000270063989800B306D640E3D786F2A3003D
:10551000B700B286C1BF8357C700171500200345E7
:10552000C5619305E0043305F5024205418197F01A
:10553000FF1FE780003B9717002023A5A76449FDC4
:1055400041B3171600200356265F9715002083C528
:10555000C55EB385C502338686001106E3E2C5D673
:1055600081BF01458280011106CE2EC6EF70E0405A
:1055700001C9B245F2400355250005616FA00067DF
:10558000F240494505618280A382019423820194FF
:1055900023A6019223A8019223AA019223AC01928F
:1055A00023A4019223A20192971700209387C75F3B
:1055B0003707B40098C33747A000D8C33707100097
:1055C0009306070A94C7B7065000C106D4C79306CE
:1055D00007054107D8CB3707D007410798CF3707D2
:1055E000840398D337C70700130707B8D8D3416798
:1055F00094CB93060701130717F8D8D7417723AE4A
:10560000070094D798DB8280011126CAAA8421451D
:1056100022CC06CE2E8432C636C43AC2EFE07FBC1E
:105620001DC9A24612473246930700FD2300F5002C
:105630009947A30095002301F5002303D500A30398
:10564000E5002312C500AA8522856244F240D244B7
:1056500005616FE07FC3F2406244D24405618280FD
:1056600023A6A192828023A8A192828023AAA1923C
:10567000828023ACA1928280011122CC4AC806CE3E
:1056800026CA2A890144B30489006368B400F24041
:105690006244D2444249056182802EC6EFE05FCE6B
:1056A00093170501C183A183B2452380F4009307BA
:1056B000140093F7F70F850463F9B700CA9709043C
:1056C0002380A7001374F40F7DBF3E847DBFC167A4
:1056D000171500200355E550FD176302F50241112F
:1056E00003C6019D9385C19306C6EF70400AB24080
:1056F000FD57171700202316F74E41018280828044
:1057000009C925151375F50F1335850E13451500B9
:1057100082800145828023800500F94763E2C70843
:10572000797122D426D24ECE56CA5AC806D64AD04D
:1057300052CC5EC63684B289AE8A2A8B814463FF1E
:105740003405B307940003CA0700138914001379C2
:10575000F90F63050A04B3072A0163C1F904B3070B
:10576000240183CB07005E85613F0DC99307FAFFD3
:105770002380FA0063906B03130519002295B25041
:10578000225492540259F249624AD24A424BB24BD5
:1057900045618280D29493F4F40F55B70145C5B7A3
:1057A00001458280411126C2AE8422C49717002091
:1057B00023A0C7449717002023AAB74297170020B9
:1057C00023A4A7422A8441469305F00F26854AC0A8
:1057D00006C60549EFE0BFE1631E250397170020C9
:1057E0009387C73F884BC145413D41469305F00F24
:1057F0002285EFE0DFDF8544631695022244971788
:1058000000209387A73DB24092440249C847C14552
:1058100041019DB5414681452685EFE05FDDE316F8
:1058200025FD6DBF414681452285EFE05FDCE30742
:1058300095FCB240224492440249410182804111C8
:1058400022C426C22E84AA8413060002814517159D
:1058500000201305A53806C6EFE05FCF971700209C
:10586000A38F9736A389819CEFA0C039854719C1C2
:1058700081474945B2402244171700202300F736DC
:10588000924441018280814781CD19C98547631BBC
:10589000F50083C7550093E707FCA382F500854711
:1058A0003E85828089476317F50083C7550093F7CB
:1058B000F703E5B70D478547E314E5FE03C7550039
:1058C0001377F70313670704A382E500D1BF81476D
:1058D0008DC105C103C755009306000C854713779A
:1058E000070C6308D700930600048D476303D700B5
:1058F00089473E858280411122C4005D06C626C2CA
:105900001DC8AA84085009C597F0FF1FE78000074B
:10591000485009C597F0FF1FE7804006085409C5A5
:1059200097F0FF1FE7808005228597F0FF1FE78033
:10593000E00423AC0402B24022449244410182803C
:1059400009ED9717002083C7872917150020130535
:10595000652A81CB1385C19182801715002013051C
:1059600065298280171500200345652782809717D7
:1059700000209387A726C847828097170020938727
:10598000E725884B82809717002093872725DC4BDB
:10599000884382809717002093874724D84B1C4365
:1059A00085071CC317150020034575239307F00FC7
:1059B0006305F50091656FE07FC58280011122CCFF
:1059C00006CE2E8432C6EF70800A9147B245631F1F
:1059D000F500938781939C438DC303A30700630E57
:1059E000030022856244F24005610283938701939C
:1059F0009C4381C703A34700DDB7F24062440545DD
:105A000005618280011122CC2A840355450006CE0F
:105A100026CA4AC84EC6EF60706635C52A898344D7
:105A200005008349C500C13D4A85EF70D05D03552F
:105A30004400EF60507F83C74194B1CB63999704D2
:105A400083C551942685EFF01FB219E1238201949A
:105A500003554400EF70A0019147631FF500035701
:105A600044009717002083D7C7176317F700FD5727
:105A7000171700202317F716F2406244D244424918
:105A8000B2490561828081499304F00F6DB7930795
:105A9000F00FE38FF4FA8346640003564400034595
:105AA00024004E87A685EFF03FB65DB779715EC6DC
:105AB000AA8B2E8552CC56CA5AC806D622D426D2D4
:105AC0004AD04ECEAE8A328B368AEF60305B75C1DB
:105AD000045D2A89F9CC9C50614599C313054003A4
